S0170000466F726B6C697374417474656D70742E73726563E0
S11300000C942A000C9447000C9447000C9447006D
S11300100C9447000C9447000C946A040C941E033F
S11300200C9447000C94F0060C9447000C9449007F
S11300300C9447000C9447000C9420040C94470043
S11300400C9447000C9447000C9447000C94470010
S11300500C94470011241FBECFE5D4E0DEBFCDBF12
S113006010E0A0E6B0E0EAE4F0E102C005900D92F1
S1130070A237B107D9F722E0A2E7B0E001C01D9290
S1130080A134B207E1F70E9442010C9423080C94B6
S113009000001F920F920FB60F921124EF920F934C
S11300A02F933F934F935F936F937F938F939F937C
S11300B0AF93BF93EF93FF93CF93DF9300D01F923F
S11300C0CDB7DEB780E090E09C012F5F3F4FF90190
S11300D0E351FF4F4081FC01E351FF4F4083C901CD
S11300E02131310589F78CB18093FE008091FE00A7
S11300F08E3209F0A4C08091EE008C3331F08091EF
S1130100EE008E3321F440E003C041E001C042E040
S11301108091ED008C3609F440C000F5823609F474
S113012072C0843609F096C08091FD004B830E9412
S1130130B103E82E89EF90E00E94FD07082F85EFB8
S113014090E00E94FD07282F8FEE90E02A830E9402
S1130150FD07BC012A814B8181E052C08337B9F18C
S1130160853709F077C08091FD004B830E94B1036D
S1130170E82E89EF90E00E94FD07082F85EF90E0BC
S11301800E94FD07282F8FEE90E02A830E94FD072E
S1130190BC012A814B8183E033C08091FD004B83F5
S11301A00E94B103E82E89EF90E00E94FD07082F1A
S11301B085EF90E00E94FD07282F8FEE90E02A83C0
S11301C00E94FD07BC012A814B8180E019C0809107
S11301D0FD004B830E94B103E82E89EF90E00E945A
S11301E0FD07082F85EF90E00E94FD07282F8FEE72
S11301F090E02A830E94FD07BC012A814B8182E0A2
S11302000E94590727C08091FD000E94B103282F46
S113021089EF90E02A830E94FD07482F85EF90E044
S11302204B830E94FD07682F8FEE90E069830E9444
S1130230FD072A814B8169810E9452030BC0809182
S1130240FE00883511F4F89405C08091FE008935CC
S113025009F478940F900F900F90DF91CF91FF9154
S1130260EF91BF91AF919F918F917F916F915F912A
S11302704F913F912F910F91EF900F900FBE0F90E0
S11302801F90189518BA8FEF87BB1BBA8ABB15BA93
S113029084BB12BA8EEF81BB10BC87E689B980B5E6
S11302A0866880BD8AB1886D8AB940E06BE370E0EE
S11302B080E00E94FF0441E065E370E081E00E9479
S11302C0FF0440E062E370E082E00E94FF0440E04B
S11302D065E370E083E00E94FF0468EC83E00E9421
S11302E0100562E881E00E9410050E9422050E9428
S11302F019050E944E048EB58B618EBD87E893E18B
S113030097BD86BD89B7886089BF7894FFCF309147
S11303103E0226B320952327809173008223809583
S113032080937300909172009223982790937200A7
S11303302823822F8923982F932790933E0220917C
S113034004028923822B809304020895CF92DF92C2
S1130350EF92FF920F931F93CF93DF931F92CDB72A
S1130360DEB7198281E00E945F04882311F081E0E6
S11303708983898190E090930F0280930E0280918B
S1130380030280FBCC24C0F8D12CD0920602C09288
S113039005028091030281FBEE24E0F8F12CF09237
S11303A00902E09208028091030282FB002700F90F
S11303B010E010930C0200930B020F90DF91CF9189
S11303C01F910F91FF90EF90DF90CF9008956623D7
S11303D001F1823041F485E0689FF0011124EC586A
S11303E0FF4F84810895811109C087E0689FF0015F
S11303F01124E55AFE4F828193810895813049F496
S113040086E0689FF0011124E95FFE4F81819281AB
S1130410089580E008956623F1F1823091F4E1E0DB
S1130420F0E085E08E9FD0018F9FB00D1124AC5871
S1130430BF4F9C91961789F13196E831F10591F7F8
S113044030C0811113C041E050E087E0849FF00187
S1130450859FF00D1124E55AFE4F90819617F9F00F
S11304604F5F5F4F4831510589F71BC08130C9F494
S113047021E030E086E0829FF001839FF00D11249B
S1130480E95FFE4F9081961771F02F5F3F4F2D303B
S1130490310589F706C080E008958E2F0895842FD2
S11304A00895862F0895822F08958091EC00882363
S11304B099F1E091EC0085E08E9FF0011124EC5855
S11304C0FF4F9381E091EC008E9FF0011124EC58D2
S11304D0FF4F1482E091EC008E9FF0011124EC5840
S11304E0FF4F1082E091EC008E9FF0011124EC5834
S11304F0FF4F1382E091EC008E9FF0011124EC5821
S1130500FF4F1282E091EC008E9FF0011124EC5811
S1130510FF4F11829093EC000895AF92BF92CF9257
S1130520DF92EF92FF920F931F93CF93DF9300D04C
S113053000D0CDB7DEB7E091EC0085E08E9FF001EE
S11305401124EC58FF4F92819C839C81992361F084
S11305506C81E091EC008E9FF0011124EC58FF4F68
S113056081810E94E7018C838C81811158C0E091C4
S1130570EC0085E0E89FF0011124EC58FF4F8481E2
S11305808B838B8182958F708A838B818F708B8311
S113059081E089838A8180FF0DC02B8180910502CF
S11305A09091060220FBAA24A0F8B12CA816B90643
S11305B009F019828A8181FF0DC02B818091080284
S11305C09091090221FBCC24C0F8D12CC816D9067D
S11305D009F019828A8182FF0DC02B8180910B0260
S11305E090910C0222FBEE24E0F8F12CE816F906B7
S11305F009F019828A8183FF0DC02B8180910E023C
S113060090910F0223FB002700F910E00817190747
S113061009F019828981813011F40E9455020F90EA
S11306200F900F900F90DF91CF911F910F91FF903A
S1130630EF90DF90CF90BF90AF9008951F920F92EC
S11306400FB60F9211242F933F934F935F936F93A1
S11306507F938F939F93AF93BF93EF93FF930E94E6
S1130660A6010E9487010E948D0280913F0283337C
S113067018F010923F0205C080913F028F5F809373
S11306803F02FF91EF91BF91AF919F918F917F9125
S11306906F915F914F913F912F910F900FBE0F90EB
S11306A01F901895DF92EF92FF920F931F93CF93B1
S11306B0DF931F92CDB7DEB7EE24E394F12C95E0DF
S11306C0DE2C9E9D80019F9D100D11240C581F4F00
S11306D0F8013496D80114963C91332349F0BFEFC6
S11306E0EB1AFB0AE8E1EE16F10451F781E030C0A1
S11306F08083D8014C9313961C92139711962C93D4
S1130700822F0E940B02F80182838091EC0089837E
S113071089818823D9F095E0E9819E9FF001112415
S1130720EC58FF4F8381E981882341F09E9FF001BB
S11307301124EC58FF4F83818983EECF35E0E39F8A
S1130740F0011124EC58FF4FD38202C0E092EC0078
S11307500F90DF91CF911F910F91FF90EF90DF9059
S113076008958256823130F4E82FF0E0E05AFF4FCA
S11307708081089583E00895809140028230F9F0E9
S11307808430C1F181114FC084B195B19093560169
S11307908093550187B1887F87B9809155019091E5
S11307A056018130924020F0809103028E7F03C075
S11307B080910302816080930302389A34C084B12B
S11307C095B1909358018093570187B1887F87B979
S11307D080915701909158018130924020F080918E
S11307E003028D7F03C08091030282608093030221
S11307F0399A19C084B195B190935A0180935901E3
S113080087B1887F87B98091590190915A018130CD
S1130810924020F0809103028B7F03C080910302F9
S113082084608093030280914002853018F0109216
S113083040020895809140028F5F809340020895A2
S11308401F920F920FB60F9211242F933F934F9341
S11308505F936F937F938F939F93AF93BF93EF9324
S1130860FF930E94BC03369AFF91EF91BF91AF9121
S11308709F918F917F916F915F914F913F912F91B4
S11308800F900FBE0F901F9018951092110287B30E
S11308908C7F87BB88B3836088BB08950E9445041E
S11308A08BB3887F8BBB8AB3887F8ABB3E9A86B121
S11308B0886886B986B1876086B9369A0895F894AF
S11308C09091040289239091040298279093040242
S11308D0789408951F920F920FB60F9211248F935C
S11308E09F93EF93FF93809106018823A1F1809158
S11308F00601843658F1E091050186E08E9FF001EF
S11309001124E95FFE4F9581E09105018E9FF0016E
S11309101124E95FFE4F1582E09105018E9FF001DD
S11309201124E95FFE4F1482E09105018E9FF001CE
S11309301124E95FFE4F12821182909305011092F7
S11309400401109203011092060105C08091060172
S11309508F5F80930601FF91EF919F918F910F908C
S11309600FBE0F901F90189528E0829FC00111249C
S1130970FC01E150FF4F81819281C29741F4838150
S1130980853029F46115710511F07BBD6ABD0895A8
S11309900F931F93CF93DF93082F88E0089FE00104
S11309A01124C150DF4FEE8116E01E9FF001112487
S11309B0E95FFE4F6481EE811E9FF0011124E95F1F
S11309C0FE4F83810E94E701811114C08F81811140
S11309D011C0EE811E9FF0011124E95FFE4F818159
S11309E092819D838C836C817D81802F0E94B404CD
S11309F081E08F83DF91CF911F910F9108959BE048
S1130A00899FF0011124EE5EFD4F80837283618320
S1130A104383108617828FEF84838CE68287089540
S1130A202BE0829FC0011124FC01EE5EFD4F628722
S1130A30089589B7816089BF81E082BF83B78160EF
S1130A4083BF089580E090E03FEF2BE0289FF00102
S1130A50299FF00D1124EE5EFD4F4481431708F4E5
S1130A603481289FF001299FF00D1124EE5EFD4F83
S1130A701582168201968430910541F780E090E05A
S1130A8037E022E0389FF001399FF00D1124E55A38
S1130A90FE4F1582218310821382128216820196E0
S1130AA08831910579F70895CF93DF931F92CDB7DD
S1130AB0DEB7282F30E09BE0899FD0011124AE5E81
S1130AC0BD4F15968C9115978983E98197E09E9F78
S1130AD0F0011124E55AFE4F13821282E9819E9F90
S1130AE0F0011124E55AFE4F1582E9819E9FF00121
S1130AF01124E55AFE4F82E081838981882309F419
S1130B0043C08FEF14968C931497E9819E9FF00154
S1130B101124E55AFE4F86818823A9F0E9819E9F1E
S1130B20F0011124E55AFE4FE6819E9FF001112445
S1130B30E55AFE4F8181811103C019961C9203C0AE
S1130B4083E019968C938BE0829FF001839FF00DD4
S1130B501124EE5EFD4F108617821682A98187E06C
S1130B60A89FD0011124A55ABE4F16968C91858357
S1130B7083810180F281E02D811103C080818F7017
S1130B8002C08081807F80830F90DF91CF91089590
S1130B90DF92EF92FF920F931F93CF93DF93C82FAF
S1130BA0D0E00BE0809FF0011124EE5EFD4F9381B5
S1130BB0992329F043E052E071E060E004C047E08B
S1130BC056E075E064E09BE09C9FF0019D9FF00D72
S1130BD01124EE5EFD4F91859130D9F100F19230F0
S1130BE009F451C0933009F069C0E180F280D70163
S1130BF0DC9021E030E08901072E01C0000F0A9447
S1130C00EAF7902F90959D219C930180F281E02D2D
S1130C109081042E01C0220F0A94EAF74DC0E180AE
S1130C20F280D701DC9021E030E08901052E01C07B
S1130C30000F0A94EAF7902F90959D219C930180D0
S1130C40F281E02D9081062E01C0220F0A94EAF76A
S1130C5033C0E180F280D701DC9021E030E08901EB
S1130C60042E01C0000F0A94EAF7902F90959D215D
S1130C709C930180F281E02D9081072E01C0220F08
S1130C800A94EAF719C0E180F280D701DC9021E0F0
S1130C9030E08901062E01C0000F0A94EAF7902F74
S1130CA090959D219C930180F281E02D9081052EE9
S1130CB001C0220F0A94EAF7292B20839BE09C9F12
S1130CC0F0019D9FF00D1124EE5EFD4FA58197E08C
S1130CD09A9FD0011124A55ABE4F11962C9121112F
S1130CE008C09185933011F4118615C091859F5FDA
S1130CF011C0A5819A9FD0011124A55ABE4F119607
S1130D009C91913041F49185911102C093E002C00D
S1130D109185915091879BE09C9FF0019D9FF00DE0
S1130D201124EE5EFD4F27813085A58197E09A9FBF
S1130D30D0011124A55ABE4F12960D90BC91A02D3E
S1130D4014962A173B0719F50180F281E02D908152
S1130D5021E030E0D90101C0AA0F7A95EAF78901B0
S1130D6002C0000F111F6A95E2F7A02BB90101C060
S1130D70660F5A95EAF76A2B01C0220F4A95EAF7E3
S1130D80262B2095292320830E94540512C0A58177
S1130D909A9FD0011124A55ABE4F12968D919C9111
S1130DA013978C3F9F4F28F48781908501969087F5
S1130DB087838BE08C9FF0018D9FF00D1124EE5EF4
S1130DC0FD4F94818285891718F48481815084832E
S1130DD0DF91CF911F910F91FF90EF90DF900895D5
S1130DE01F920F920FB60F9211240F931F932F93FC
S1130DF03F934F935F936F937F938F939F93AF939F
S1130E00BF93CF93DF93EF93FF93C0E0D0E01BE059
S1130E1007E01C9FF0011D9FF00D1124EE5EFD4FB5
S1130E2096818481981322C085818823B1F0A5819D
S1130E300A9FD0011124A55ABE4F15966C91E581E5
S1130E400E9FF0011124E55AFE4F84810E94E701B0
S1130E50811103C08C2F0E94C8051C9FF0011D9FA7
S1130E60F00D1124EE5EFD4F168203C086818F5F64
S1130E7086832196C430D10561F6809105018823CB
S1130E8019F080E00E94C804FF91EF91DF91CF91A7
S1130E90BF91AF919F918F917F916F915F914F918E
S1130EA03F912F911F910F910F900FBE0F901F90A4
S1130EB01895CF92DF92EF92FF920F931F93CF93E7
S1130EC0DF9300D0CDB7DEB7182F8E2D91E09A8333
S1130ED037E09A81983108F043C0EA8197E0F92E0F
S1130EE03E9FF0011124E55AFE4F0280F381E02D6C
S1130EF0EF2B91F5EA81FE9EF0011124E55AFE4F95
S1130F000083EA81FE9EF0011124E55AFE4F168209
S1130F10EA81FE9EF0011124E55AFE4F4183EA81E5
S1130F20FE9EF0011124E55AFE4F73836283EA8129
S1130F30FE9EF0011124E55AFE4F8483CA80D12C11
S1130F40622F0E940B02FC9CF001FD9CF00D112409
S1130F50E55AFE4F858304C09A819F5F9A83B9CF77
S1130F60212F30E08BE0189FF0011124EE5EFD4F3D
S1130F708581898389818823E1F087E0E9818E9FD7
S1130F80F0011124E55AFE4F9681E981992341F03D
S1130F908E9FF0011124E55AFE4F96819983EECF7E
S1130FA08A8197E0E99FF0011124E55AFE4F868378
S1130FB019C0AA8187E0A89FD0011124A55ABE4F69
S1130FC011968C91811102C0118602C083E0818741
S1130FD08A819BE0929FF001939FF00D1124EE5EB5
S1130FE0FD4F85830F900F90DF91CF911F910F914B
S1130FF0FF90EF90DF90CF900895FC018827992708
S1131000E89421912032E9F3293010F02E30C8F30E
S11310102B3241F02D3239F4689404C00E941B082D
S1131020820F911D219120532A30C0F31EF4909514
S113103081959F4F08957AE0979F902D879F802DEB
S10D1040910D11240895F894FFCFD8
S113104A0203030303030303030303030301030365
S105105A03008D
S9030000FC
