S020000041746D6567613136417474656D70744D6F746F72537465702E73726563C2
S11300000C942A000C943C000C943C000C943C008E
S11300100C943C000C943C000C941A020C943C008C
S11300200C943C000C94F0060C943C000C943E00A0
S11300300C943C000C943C000C943C000C943C004C
S11300400C943C000C943C000C943C000C943C003C
S11300500C943C0011241FBECFE5D4E0DEBFCDBF1D
S113006023E0A0E6B0E001C01D92A83DB207E1F78D
S11300700E9418010C9401090C9400001F920F9225
S11300800FB60F921124CF92DF92EF920F931F932A
S11300902F933F934F935F936F937F938F939F938C
S11300A0AF93BF93CF93DF93EF93FF9380E090E000
S11300B09C012F5F3F4FF901E05AFF4F4081FC0143
S11300C0E05AFF4F4083C9012131310589F78CB1D2
S11300D0E0E6F0E0818B81898E3209F06BC080917B
S11300E061008C3331F0809161008E3321F410E093
S11300F003C011E001C012E082E690E00E94DB0838
S11301006C0188E690E00E94DB08C0E6D0E08887B6
S11301108CE690E00E94DB088C8798819337B9F1D4
S113012028F49C3699F09D3631F06AC0943721F159
S11301309537B9F065C0E0E6F0E0E08804852085F5
S1130140412FB60183E00E9494075AC0E0E6F0E034
S1130150E08804852085412FB60182E00E9494073F
S11301604FC0E0E6F0E0E08804852085412FB60129
S113017081E00E94940744C0E0E6F0E0E088048552
S11301802085412FB60180E00E94940739C08091F8
S11301906100833529F4B60180E00E948A0230C0F0
S11301A0E0E6F0E0008924854085B60180E00E9405
S11301B0BD0226C0809171008B3369F480E00E94F7
S11301C08B0481E00E948B0482E00E948B0483E014
S11301D00E948B0415C080917100883539F483B76F
S11301E08E7F83BF8EB58C7F8EBD0AC080917100D7
S11301F0893531F483B7816083BF8EB583608EBD4A
S1130200FF91EF91DF91CF91BF91AF919F918F912A
S11302107F916F915F914F913F912F911F910F911A
S1130220EF90DF90CF900F900FBE0F901F90189516
S113023018BA8FEF87BB1BBA8ABB15BA84BB12BA34
S113024082E081BB10BC87E689B980B5866880BD31
S11302508AB1886D8AB941E068E370E080E00E9469
S1130260230440E068E370E082E00E94230440E05D
S113027065E370E083E00E94230441E065E370E0FD
S113028081E00E94230468EC81E00E94340420E0B1
S113029030E045E062E370E080E00E94AB020E943F
S11302A047040E943D040E94CD0183B78E7F83BF23
S11302B08EB58C7F8EBDC0E6D0E00F2EFDE69F2E5E
S11302C0F02D98820F2EFEE3AF2EF02DA98210E3BD
S11302D01A830F2EF1E3BF2EF02DBB821C831D83E6
S11302E01E830F2EFBE3FF2EF02DFF821887198744
S11302F01A87FB861C871D8783E38E87FF860F2E54
S1130300FEE6CF2EF02DC88A0F2EFEE2DF2EF02D52
S1130310D98AE8888CE690E00E94DB08082F88E6FA
S113032090E00E94DB08882E82E690E00E94DB08C1
S1130330BC01282D40E083E00E9494079882A982A2
S11303401A83BB821C831D831E83FF82188719872F
S11303501A87FB861C871D8784E38E87FF86C88ADD
S1130360D98AE8888CE690E00E94DB08082F88E6AA
S113037090E00E94DB08C82F82E690E00E94DB0830
S1130380BC012C2F40E083E00E94940783B7816076
S113039083BF8EB583608EBDFFCF80E090E0FC010B
S11303A0EE0FFF1FEE0FFF1FE80FF91FE658FF4F78
S11303B01082138214821282118201968A3091056E
S11303C071F731C080917500853021F5E2E7F0E0E6
S11303D0238141B381E090E0BC0102C0660F771F26
S11303E02A95E2F79B01242B21BB338122B302C05F
S11303F0880F991F3A95E2F780959095822382BBE6
S1130400848195819BBD8ABD8FB582688FBD8EB571
S11304108B618EBD87E893E197BD86BD89B7806106
S113042089BF789408958091730090917400C29765
S113043089F7C8CF1F920F920FB60F9211242F93F2
S11304408F939F93AF93BF93EF93FF938091790022
S1130450882309F453C080917900843608F449C094
S1130460A2E7B0E016968C91169790E0FC01EE0F8F
S1130470FF1FEE0FFF1F8E0F9F1FFC01E658FF4F5B
S1130480248116968C91169790E0FC01EE0FFF1FC5
S1130490EE0FFF1F8E0F9F1FFC01E658FF4F1482C3
S11304A016968C91169790E0FC01EE0FFF1FEE0F4D
S11304B0FF1F8E0F9F1FFC01E658FF4F13821696F5
S11304C08C91169790E0FC01EE0FFF1FEE0FFF1FBB
S11304D08E0F9F1FFC01E658FF4F12821182169661
S11304E02C93169715961C921E92149717961C928D
S11304F005C0E2E7F0E087818F5F8783FF91EF918A
S1130500BF91AF919F918F912F910F900FBE0F903C
S11305101F90189590E0FC01EE0FFF1FEE0FFF1FD8
S1130520EE0FFF1FEE58FF4F218132812233310538
S113053089F4880F991F880F991F880F991FFC0150
S1130540EE58FF4F8381853029F46115710511F050
S11305507BBD6ABD0895E82FF0E0EE0FFF1FEE0F9C
S1130560FF1FEE0FFF1FEE58FF4F80833583248358
S1130570438372836183178208950F931F93CF93EC
S1130580DF931F92CDB7DEB7093739F09091B200EF
S1130590941709F4D4C092E029C090917F00941775
S11305A009F4C8C0E2E0F0E09E2FDF01AA0FBB1FF0
S11305B0AA0FBB1FAE0FBF1FA658BF4F3C913413E9
S11305C007C0442369F001C091E0492F50E809C0F5
S11305D091E09E0F3196EA30F10531F750E801C001
S11305E050E09A30F9F450E040E01CC0E92FF0E00C
S11305F0DF01AA0FBB1FEA0FFB1FEE0FFF1FE4551D
S1130600FF4F3081341306C0442331F001C091E020
S1130610492F02C09F5F52F7903819F450E040E030
S113062001C050E0E0918000F0918100EF2BA1F037
S1130630E2E0F0E03E2F8F01DF01AA0FBB1FAA0FFB
S1130640BB1FAE0FBF1FA658BF4F11960D90BC9194
S1130650A02DAB2BA9F403C001E010E031E0F801B8
S1130660EE0FFF1FEE0FFF1F0E0F1F1FF801E658BE
S1130670FF4F7283618320831482450F438306C036
S113068031E03E0F3196EA30F105A1F690E0FC012D
S1130690EE0FFF1FEE0FFF1FEE0FFF1FEE58FF4F71
S11306A02681298329812223D1F1898190E0FC01CB
S11306B0EE0FFF1FEE0FFF1F8E0F9F1FFC01E6586A
S11306C0FF4F84818823E9F0898190E0FC01EE0FDB
S11306D0FF1FEE0FFF1F8E0F9F1FFC01E658FF4FF9
S11306E084818983898190E0FC01EE0FFF1FEE0F66
S11306F0FF1F8E0F9F1FFC01E658FF4F848181115D
S1130700E3CF898190E0FC01EE0FFF1FEE0FFF1F86
S11307108E0F9F1FFC01E658FF4F348315C0880FCE
S1130720991F880F991F880F991FFC01EE58FF4FDE
S113073036830AC0911148CF50E040E073CF911145
S113074066CF50E040E06ECF0F90DF91CF911F91C4
S11307500F910895CF93DF93482F50E0FA01EE0FE5
S1130760FF1FEE0FFF1FEE0FFF1FEE58FF4F2681F6
S113077030E0F901EE0FFF1FEE0FFF1F2E0F3F1F9A
S1130780F901E658FF4F23812138D8F0205830E092
S1130790F901EE0FFF1FEE0FFF1F2E0F3F1FF90190
S11307A0E658FF4F238130E0F901EE0FFF1FEE0FF3
S11307B0FF1F2E0F3F1FF901E658FF4F21813281A1
S11307C01AC02223D1F030E0F901EE0FFF1FEE0F23
S11307D0FF1F2E0F3F1FF901E658FF4F238130E022
S11307E0F901EE0FFF1FE20FF31FEE0FFF1FE45599
S11307F0FF4F22813381211123C0FA01EE0FFF1F25
S1130800EE0FFF1FEE0FFF1FEE58FF4F9781911160
S113081017C0EF01268130E0F901EE0FFF1FEE0F44
S1130820FF1F2E0F3F1FF901E658FF4F2181328130
S11308303D832C836C817D810E948A0281E08F83B9
S1130840DF91CF9108959BE0899FF0011124E45535
S1130850FC4F8083728361834383108617828FEFFA
S113086084838CE6828708952BE0829FC001112443
S1130870FC01E455FC4F6287089589B7816089BF04
S113088081E082BF83B7816083BF7894089580E05C
S113089090E06FEF2BE0AC01289FF001299FF00D51
S11308A01124E455FC4F3481361740F4289FF0019D
S11308B0299FF00D1124E455FC4F6481249FF0011D
S11308C0259FF00D1124E455FC4F158216820196E4
S11308D08430910501F720E030E042E0C901880F3F
S11308E0991FFC01E20FF31FEE0FFF1FE455FF4FAA
S11308F014824183108213821282FC01E20FF31FDF
S1130900EE0FFF1FE455FF4F15822F5F3F4F203836
S1130910310521F70895CF93DF931F92CDB7DEB74A
S1130920282F30E09BE0899FF0011124E455FC4F0F
S113093085818983898190E0FC01EE0FFF1FE80F18
S1130940F91FEE0FFF1FE455FF4F138212828981B6
S113095090E0FC01EE0FFF1FE80FF91FEE0FFF1FE1
S1130960E455FF4F1482898190E0FC01EE0FFF1FD4
S1130970E80FF91FEE0FFF1FE455FF4F82E081835C
S11309808981882309F47EC08BE0829FF001839FD4
S1130990F00D1124E455FC4F8FEF8483898190E09E
S11309A0FC01EE0FFF1FE80FF91FEE0FFF1FE455C8
S11309B0FF4F8581882369F1898190E0FC01EE0F66
S11309C0FF1FE80FF91FEE0FFF1FE455FF4F85814E
S11309D090E0FC01EE0FFF1FE80FF91FEE0FFF1F61
S11309E0E455FF4F818181110AC08BE0829FF001A1
S11309F0839FF00D1124E455FC4F11860AC08BE04F
S1130A00829FF001839FF00D1124E455FC4F83E095
S1130A1081878BE0829FD001839FB00D1124A45560
S1130A20BC4F18961C921E92179716961C921697F6
S1130A30898190E0FC01EE0FFF1FE80FF91FEE0F14
S1130A40FF1FE455FF4F858115968C9315971396D8
S1130A508C911397811108C0FD010180F281E02D72
S1130A6080818F7080830EC08BE0829FF001839F12
S1130A70F00D1124E455FC4F0180F281E02D8081BA
S1130A80807F80830F90DF91CF910895DF92EF9262
S1130A90FF920F931F93CF93DF93C82FD0E00BE007
S1130AA0809FF0011124E455FC4F9381992329F090
S1130AB093E042E061E050E004C097E046E065E086
S1130AC054E02BE02C9FF0012D9FF00D1124E455F0
S1130AD0FC4F2185213071F138F0223009F450C0E7
S1130AE0233009F473C097C02BE02C9FF0012D9F95
S1130AF0F00D1124E455FC4FE180F280D701DC9025
S1130B0021E030E08901042E02C0000F111F0A9475
S1130B10E2F7702F70957D217C930180F281E02DA6
S1130B207081052E02C0220F331F0A94E2F7272B8F
S1130B30208371C02BE02C9FF0012D9FF00D112418
S1130B40E455FC4FE180F280D701DC9021E030E0F5
S1130B508901092E02C0000F111F0A94E2F7702FB9
S1130B6070957D217C930180F281E02D7081062EA9
S1130B7002C0220F331F0A94E2F7272B20834BC0B5
S1130B802BE02C9FF0012D9FF00D1124E455FC4F18
S1130B90E180F280D701DC9021E030E08901052E6C
S1130BA002C0000F111F0A94E2F7702F70957D2187
S1130BB07C930180F281E02D7081042E02C0220F0B
S1130BC0331F0A94E2F7272B208325C02BE02C9FA8
S1130BD0F0012D9FF00D1124E455FC4FE180F280CB
S1130BE0D701DC9021E030E08901062E02C0000F1D
S1130BF0111F0A94E2F7702F70957D217C93018078
S1130C00F281E02D7081092E02C0220F331F0A9455
S1130C10E2F7272B20832BE02C9FF0012D9FF00D72
S1130C201124E455FC4F258130E0F901EE0FFF1F3C
S1130C30E20FF31FEE0FFF1FE455FF4F2181211137
S1130C4021C02BE02C9FF0012D9FF00D1124E455C1
S1130C50FC4F2185233051F42BE02C9FF0012D9F74
S1130C60F00D1124E455FC4F118643C02BE02C9F5A
S1130C70F0012D9FF00D1124E455FC4F21852F5FC9
S1130C80218737C02BE02C9FF0012D9FF00D1124FC
S1130C90E455FC4F258130E0F901EE0FFF1FE20F10
S1130CA0F31FEE0FFF1FE455FF4F2181213009F59B
S1130CB02BE02C9FF0012D9FF00D1124E455FC4FE7
S1130CC0218521110BC02BE02C9FF0012D9FF00DED
S1130CD01124E455FC4F23E021870BC02BE02C9F0B
S1130CE0F0012D9FF00D1124E455FC4F2185215076
S1130CF021872BE02C9FF0012D9FF00D1124E4554A
S1130D00FC4FA781B085258130E0F901EE0FFF1F6C
S1130D10E20FF31FEE0FFF1FE455FF4F22813381D3
S1130D202C5F3F4FA217B30779F52BE02C9FF001FE
S1130D302D9FF00D1124E455FC4F0180F281E02D2C
S1130D40708121E030E0890102C0000F111F6A9513
S1130D50E2F7D90102C0AA0FBB1F5A95E2F7A02BF4
S1130D60890102C0000F111F4A95E2F7A8014A2B1E
S1130D7002C0220F331F9A95E2F7242B20952723D4
S1130D8020830E948B040DC08BE08C9FF0018D9F0B
S1130D90F00D1124E455FC4F8781908501969087CE
S1130DA087838BE08C9FF0018D9FF00D1124E45517
S1130DB0FC4F94818285891758F48BE08C9FF00155
S1130DC08D9FF00D1124E455FC4F84818150848360
S1130DD0DF91CF911F910F91FF90EF90DF900895D5
S1130DE01F920F920FB60F921124EF92FF921F934E
S1130DF02F933F934F935F936F937F938F939F931F
S1130E00AF93BF93CF93DF93EF93FF93C0E0D0E012
S1130E101BE08C2F7E011C9FF0011D9FF00D1124FF
S1130E20E455FC4F26819481291350C01C9FF00186
S1130E301D9FF00D1124E455FC4F95819923E9F190
S1130E401E9DF0011F9DF00D1124E455FC4F2581DA
S1130E5030E0F901EE0FFF1FE20FF31FEE0FFF1F4B
S1130E60E455FF4F2481211103C00E94460525C08B
S1130E70213898F0205830E0F901EE0FFF1FEE0FF3
S1130E80FF1F2E0F3F1FF901E658FF4F21813281CA
S1130E90232B99F40E94460510C030E0F901EE0FAF
S1130EA0FF1FE20FF31FEE0FFF1FE455FF4F2281D8
S1130EB03381232B11F40E9446051E9DF0011F9DD2
S1130EC0F00D1124E455FC4F16820AC01C9FF0015A
S1130ED01D9FF00D1124E455FC4F86818F5F86839E
S1130EE02196C430D10509F094CF04C080E00E945B
S1130EF0AA0304C0809178008111F8CFFF91EF918B
S1130F00DF91CF91BF91AF919F918F917F916F911D
S1130F105F914F913F912F911F91FF90EF900F9010
S1130F200FBE0F901F901895EF920F93CF93DF93FE
S1130F3000D0CDB7DEB799E7E91639F09091B20049
S1130F40921709F42CC192E029C090917F00921766
S1130F5009F420C1E2E0F0E09E2FDF01AA0FBB1FDD
S1130F60AA0FBB1FAE0FBF1FA658BF4F3C91321331
S1130F7007C0222369F001C091E0292F30E809C09D
S1130F8091E09E0F3196EA30F10531F730E801C067
S1130F9030E09A30F9F430E020E01CC0E92FF0E0B2
S1130FA0DF01AA0FBB1FEA0FFB1FEE0FFF1FE45563
S1130FB0FF4F3081321306C0222331F001C091E08B
S1130FC0292F02C09F5F52F7903819F430E020E0D7
S1130FD001C030E091E09983998199230CF469C0B0
S1130FE0E981F0E0DF01AA0FBB1FEA0FFB1FEE0F40
S1130FF0FF1FE455FF4F0280F381E02DEF2B09F032
S113100051C011C0E981F0E0DF01AA0FBB1FEA0F54
S1131010FB1FEE0FFF1FE455FF4F0280F381E02D0D
S1131020EF2B09F03FC0E981F0E0DF01AA0FBB1FFD
S1131030EA0FFB1FEE0FFF1FE455FF4F0083E9810A
S1131040F0E0DF01AA0FBB1FEA0FFB1FEE0FFF1F2B
S1131050E455FF4F1582E981F0E0DF01AA0FBB1FC1
S1131060EA0FFB1FEE0FFF1FE455FF4F4183498139
S113107050E0FA01EE0FFF1FE40FF51FEE0FFF1F04
S1131080E455FF4F73836283498150E0230FFA01D3
S1131090EE0FFF1FE40FF51FEE0FFF1FE455FF4F88
S11310A0248307C099819F5F9983998199230CF0C8
S11310B0A9CF282F30E09BE0899FF0011124E4554B
S11310C0FC4F85818A838A818823B9F18A8190E0E3
S11310D0FC01EE0FFF1FE80FF91FEE0FFF1FE45591
S11310E0FF4F85818823D9F08A8190E0FC01EE0FBF
S11310F0FF1FE80FF91FEE0FFF1FE455FF4F858117
S11311008A838A8190E0FC01EE0FFF1FE80FF91F2C
S1131110EE0FFF1FE455FF4F85818111E5CF8A81D2
S113112090E02981FC01EE0FFF1FE80FF91FEE0F7D
S1131130FF1FE455FF4F258337C0898190E0FC01F0
S1131140EE0FFF1FE80FF91FEE0FFF1FE455FF4FCF
S1131150818181110AC08BE0829FF001839FF00D91
S11311601124E455FC4F11860AC08BE0829FF001E4
S1131170839FF00D1124E455FC4F83E0818789811E
S11311809BE0929FF001939FF00D1124E455FC4FD6
S113119085830AC09111F0CE30E020E01BCF91117D
S11311A00ECF30E020E016CF0F900F90DF91CF915B
S11311B00F91EF900895FC0188279927E8942191D5
S11311C02032E9F3293010F02E30C8F32B3241F0ED
S11311D02D3239F4689404C00E94F908820F911DDD
S11311E0219120532A30C0F31EF4909581959F4F8E
S11311F008957AE0979F902D879F802D910D11245B
S10912000895F894FFCFED
S9030000FC
