S00E000047616E7472792E73726563A1
S11300000C942A000C943C000C943C000C943C008E
S11300100C943C000C943C000C94C5010C943C00E2
S11300200C943C000C9419050C943C000C943E0078
S11300300C943C000C943C000C943C000C943C004C
S11300400C943C000C943C000C943C000C943C003C
S11300500C943C0011241FBECFE5D4E0DEBFCDBF1D
S113006023E0A0E6B0E001C01D92A83DB207E1F78D
S11300700E943B010C947B060C9400001F920F928B
S11300800FB60F921124EF920F932F933F934F9338
S11300905F936F937F938F939F93AF93BF93EF93EC
S11300A0FF93CF93DF9300D0CDB7DEB780E090E02D
S11300B09C012F5F3F4FF901E05AFF4F4081FC0143
S11300C0E05AFF4F4083C9012131310589F78CB1D2
S11300D080937100809171008F3209F0A1C08091EA
S11300E061008C3331F0809161008E3321F440E063
S11300F003C041E001C042E080916000833709F40D
S113010069C0E0F48C36B1F18D3609F09DC0E09001
S113011070008CE690E04A830E945506082F88E61A
S113012090E00E945506282F82E690E029830E94E1
S11301305506BC0129814A8183E032C0843799F194
S1130140853709F081C0E09070008CE690E04A8326
S11301500E945506082F88E690E00E945506282F35
S113016082E690E029830E945506BC0129814A81D8
S113017081E016C0E09070008CE690E04A830E9413
S11301805506082F88E690E00E945506282F82E63F
S113019090E029830E945506BC0129814A8182E0AE
S11301A00E94900551C0E09070008CE690E04A8374
S11301B00E945506082F88E690E00E945506282FD5
S11301C082E690E029830E945506BC0129814A8178
S11301D080E0E6CF80916100833549F482E690E0C7
S11301E00E945506BC0180E00E940F022DC00091C0
S11301F070008CE690E00E945506282F88E690E077
S113020029830E945506482F82E690E04A830E9483
S11302105506BC0129814A8180E00E94310214C044
S113022080917100883531F483B78E7F83BF8EB59A
S11302308C7F09C080917100893531F483B7816066
S113024083BF8EB583608EBD0F900F90DF91CF91E9
S1130250FF91EF91BF91AF919F918F917F916F919A
S11302605F914F913F912F910F91EF900F900FBE9F
S11302700F901F90189518BA8FEF87BB1BBA8ABBD3
S113028015BA84BB12BA82E081BB10BC87E689B977
S113029080B5866880BD8AB1886D8AB941E068E31B
S11302A070E080E00E94120340E068E370E082E0C6
S11302B00E94120340E065E370E083E00E941203B1
S11302C041E065E370E081E00E94120368EC81E0A4
S11302D00E94230320E030E045E062E370E080E028
S11302E00E9423020E9436030E942C030E9479017B
S11302F0FFCF80E090E025E0289FF001299FF00DDA
S11303001124E658FF4F1082138214821282118244
S113031001968A30910581F7809173009091740061
S1130320C29751F580917500853031F520917500A3
S113033041B381E090E0BC0102C0660F771F2A95AB
S1130340E2F79B01242B21BB3091750022B302C03C
S1130350880F991F3A95E2F780959095822382BB86
S113036080917600909177009BBD8ABD8FB582689D
S11303708FBD8EB58B618EBD87E893E197BD86BD39
S113038089B7806189BF789408951F920F920FB640
S11303900F9211248F939F93EF93FF938091790091
S11303A08823A1F180917900843658F1E091780096
S11303B085E08E9FF0011124E658FF4F9481E0916F
S11303C078008E9FF0011124E658FF4F1482E091CB
S11303D078008E9FF0011124E658FF4F1382E091BC
S11303E078008E9FF0011124E658FF4F128211828B
S11303F09093780010927700109276001092790012
S113040005C0809179008F5F80937900FF91EF910F
S11304109F918F910F900FBE0F901F90189528E019
S1130420829FC0011124FC01EE58FF4F818192810B
S1130430C29741F48381853029F46115710511F067
S11304407BBD6ABD089598E0899FF0011124EE58A0
S1130450FF4F8083358324834383728361831782B0
S11304600895EF92FF920F931F93CF93DF931F9200
S1130470CDB7DEB7E1E0F0E00937B1F495E03E2F07
S11304809E9FD0019F9FB00D1124A658BF4F5C9131
S1130490541305C041116DC030E090E06BC031963B
S11304A0EA30F10561F716C036E09E2FE038F10519
S11304B079F03E9FD0013F9FB00D1124A455BF4F4A
S11304C05C9131965413F1CF411107C090E005C0FF
S11304D0E03821F490E040E002C0492F90E027FD8D
S11304E02058A1E0B0E055E03A2F5A9FF0015B9FFD
S11304F0F00D1124E658FF4F8F010F5F1F4FE1806D
S1130500F280EF2849F4D80111967C936E932083EE
S11305101482490F438305C01196AA30B10521F70F
S11305203AE0B8E08B9FF0011124EE58FF4F86812A
S1130530898389818823D9F085E0E9818E9FF00140
S11305401124E658FF4F9481E981992341F08E9F4D
S1130550F0011124E658FF4F94819983EECF85E092
S1130560E89FF0011124E658FF4F348305C0368319
S113057003C090E8432FB3CF0F90DF91CF911F9129
S11305800F91FF90EF900895CF93DF9398E0899FA8
S113059090011124F901EE58FF4FE68195E09E9FEA
S11305A0F0011124E658FF4FE381E13878F0E05878
S11305B09E9FF0011124E658FF4FE3819E9FF001B6
S11305C01124E658FF4F4181528110C0EE2381F07F
S11305D09E9FF0011124E658FF4FE38196E0E99FC6
S11305E0F0011124E455FF4F42815381411117C09A
S11305F0E901CE58DF4F9F81911111C0EE8195E042
S1130600E99FF0011124E658FF4F218132813D8397
S11306102C836C817D810E940F0281E08F83DF91A6
S1130620CF9108959BE0899FF0011124E455FC4F7C
S11306308083728361834383108617828FEF848360
S11306408CE6828708952BE0829FC0011124FC016F
S1130650E455FC4F6287089589B7816089BF81E0C2
S113066082BF83B7816083BF7894089580E090E06F
S11306703FEF2BE0289FF001299FF00D1124E45552
S1130680FC4F4481431708F43481289FF001299FCB
S1130690F00D1124E455FC4F158216820196843026
S11306A0910541F780E090E036E022E0389FF001C8
S11306B0399FF00D1124E455FF4F148221831082D9
S11306C013821282158201968038910579F7089574
S11306D0CF93DF9300D0CDB7DEB7282F30E09BE077
S11306E0899FF0011124E455FC4F85818A83198286
S11306F095E089818430A8F4E9819E9FF00111245A
S1130700E658FF4F43818A81481307C0E9819E9FC1
S1130710F0011124E658FF4F138289818F5F89838A
S1130720E8CFEA8186E08E9FF0011124E455FF4F63
S113073013821282EA818E9FF0011124E455FF4F47
S11307401482EA818E9FF0011124E455FF4F92E058
S113075091839A81992309F44BC09BE0929FD00125
S1130760939FB00D1124A455BC4F9FEF14969C93F6
S11307701497EA818E9FF0011124E455FF4F95816F
S11307809923A9F0EA818E9FF0011124E455FF4FCB
S1130790E5818E9FF0011124E455FF4F8181811181
S11307A003C019961C9203C083E019968C938BE0C6
S11307B0829FF001839FF00D1124E455FC4F1086B5
S11307C017821682AA8186E0A89FD0011124A4551D
S11307D0BF4F15968C91858383810180F281E02D32
S11307E0811103C080818F7002C08081807F8083EB
S11307F00F900F90DF91CF910895DF92EF92FF92C7
S11308000F931F93CF93DF93C82FD0E00BE0809F0B
S1130810F0011124E455FC4F9381992329F043E01E
S113082052E071E060E004C047E056E075E064E047
S11308309BE09C9FF0019D9FF00D1124E455FC4F1B
S113084091859130D9F100F1923009F451C093307F
S113085009F069C0E180F280D701DC9021E030E04A
S11308608901072E01C0000F0A94EAF7902F909592
S11308709D219C930180F281E02D9081042E01C082
S1130880220F0A94EAF74DC0E180F280D701DC9090
S113089021E030E08901052E01C0000F0A94EAF737
S11308A0902F90959D219C930180F281E02D908161
S11308B0062E01C0220F0A94EAF733C0E180F280C9
S11308C0D701DC9021E030E08901042E01C0000F43
S11308D00A94EAF7902F90959D219C930180F281D0
S11308E0E02D9081072E01C0220F0A94EAF719C067
S11308F0E180F280D701DC9021E030E08901062E0E
S113090001C0000F0A94EAF7902F90959D219C93C3
S11309100180F281E02D9081052E01C0220F0A94FE
S1130920EAF7292B20839BE09C9FF0019D9FF00D0B
S11309301124E455FC4FA58196E09A9FD00111241F
S1130940A455BF4F11962C91211108C09185933065
S113095011F4118615C091859F5F11C0A5819A9FDE
S1130960D0011124A455BF4F11969C91913041F4AC
S11309709185911102C093E002C0918591509187B5
S11309809BE09C9FF0019D9FF00D1124E455FC4FCA
S113099007811085A58196E0A99FD0011124A45553
S11309A0BF4F12962D913C9113972C5F3F4F021726
S11309B0130719F50180F281E02D908121E030E0E8
S11309C0D90101C0AA0F7A95EAF7890102C0000F84
S11309D0111F6A95E2F7A02BB90101C0660F5A9561
S11309E0EAF76A2B01C0220F4A95EAF7262B2095D5
S11309F0292320830E94680305C08781908501967E
S1130A00908787838BE08C9FF0018D9FF00D1124DC
S1130A10E455FC4F94818285891718F484818150B0
S1130A208483DF91CF911F910F91FF90EF90DF901E
S1130A3008951F920F920FB60F921124FF920F93F5
S1130A401F932F933F934F935F936F937F938F9352
S1130A509F93AF93BF93CF93DF93EF93FF93C0E044
S1130A60D0E01BE006E085E0F82E1C9FF0011D9FFE
S1130A70F00D1124E455FC4F9681848198132CC009
S1130A808581882301F1E5810E9FF0011124E4554D
S1130A90FF4FE481EE23A1F0E13848F0E058FE9ED8
S1130AA0F0011124E658FF4F8181928107C00E9F07
S1130AB0F0011124E455FF4F82819381892B19F4AD
S1130AC08C2F0E94FD031C9FF0011D9FF00D11242B
S1130AD0E455FC4F168203C086818F5F868321967E
S1130AE0C430D10511F680917800882319F080E094
S1130AF00E94C402FF91EF91DF91CF91BF91AF911A
S1130B009F918F917F916F915F914F913F912F9121
S1130B101F910F91FF900F900FBE0F901F9018958B
S1130B20EF920F93CF93DF9300D0CDB7DEB799E761
S1130B30E1E0F0E0E91217C035E09E2F3E9FD001BE
S1130B403F9FB00D1124A658BF4F5C91521305C0AE
S1130B502111A5C090E030E0A3C03196EA30F10540
S1130B6061F730E017C036E09E2FE038F10579F0E8
S1130B703E9FD0013F9FB00D1124A455BF4F5C91FF
S1130B8031965213F1CF21118DC090E08BC030E02B
S1130B90E03809F420E091E09A8356E09A8197FDC9
S1130BA036C0EA8196E05E9FF0011124E455FF4FC0
S1130BB00280F381E02DEF2B31F5EA819E9FF00155
S1130BC01124E455FF4F0083EA819E9FF001112414
S1130BD0E455FF4F1582EA819E9FF0011124E455EC
S1130BE0FF4F4183EA819E9FF0011124E455FF4F9A
S1130BF073836283EA81230F9E9FF0011124E455DD
S1130C00FF4F248304C09A819F5F9A83C7CF282F04
S1130C1030E09BE0899FF0011124E455FC4F85816D
S1130C20898389818823D9F086E0E9818E9FF00148
S1130C301124E455FF4F9581E981992341F08E9F5A
S1130C40F0011124E455FF4F95819983EECF8A81F9
S1130C5096E0E99FF0011124E455FF4F18C0AA81E2
S1130C6086E0A89FD0011124A455BF4F11968C9102
S1130C70811102C0118602C083E081878A819BE0D2
S1130C80929FF001939FF00D1124E455FC4F85834E
S1130C900F900F90DF91CF910F91EF90089530E86E
S1130CA0292F79CF292F30E076CFFC018827992787
S1130CB0E89421912032E9F3293010F02E30C8F362
S1130CC02B3241F02D3239F4689404C00E9473062B
S1130CD0820F911D219120532A30C0F31EF4909568
S1130CE081959F4F08957AE0979F902D879F802D3F
S10D0CF0910D11240895F894FFCF2C
S9030000FC
