:100000000C941E010C943F010C943F010C943F0191
:100010000C943F010C943F010C943F010C943F0160
:100020000C943F010C943F010C943F010C943F0150
:100030000C943F010C943F010C943F010C943F0140
:100040000C943F010C943F010C943F010C943F0130
:100050000C943F010C943F010C943F010C943F0120
:100060000C943F010C943F010C943F010C943F0110
:100070000C943F010C943F010C943F010C943F0100
:100080000C943F010C943F010C943F010C943F01F0
:100090000C943F010C943F010C943F010C943F01E0
:1000A0000C943F010C943F010C943F010C943F01D0
:1000B0000C943F010C943F010C943F010C943F01C0
:1000C0000C943F010C943F010C943F010C943F01B0
:1000D0000C943F010C943F010C943F010C943F01A0
:1000E0000C943F010C943F010C9414030C948E0368
:1000F0000C943F010C943F010C943F010C943F0180
:100100000C943F010C943F010C943F010C943F016F
:100110000C943F010C943F010C943F010C943F015F
:100120000C943F010C943F010C943F010C943F014F
:100130000C943F010C943F010C943F010C943F013F
:100140000C943F010C943F010C943F010C943F012F
:100150000C943F010C943F010C943F010C943F011F
:100160000C943F010C9464030C943F010C943F01E8
:100170000C943F010C943F010C943F010C943F01FF
:100180000C943F010C943F010C943F010C943F01EF
:100190000C943F010C943F010C943F010C943F01DF
:1001A0000C943F010C943F010C943F010C943F01CF
:1001B0000C943F010C943F010C943F010C943F01BF
:1001C0000C943F010C943F010C943F010C943F01AF
:1001D0000C943F010C943F010C943F010C943F019F
:1001E0000C94B8030C943F010C943F010C943F0114
:1001F0000C943F010C943F010C943F01204F72641A
:10020000657273206C6F616465642100204F7264B5
:10021000657273206175746F747269676765726562
:1002200064210020526561647920666F72206F72CC
:1002300064657273206C69737421000011241FBE01
:10024000CFEFCDBFDFE3DEBF00E00CBF10E2A0E0E8
:10025000B0E2E2E0FAE000E00BBF02C007900D92CE
:10026000A031B107D9F720E3A0E1B0E201C01D92AF
:10027000A839B207E1F70E94E2030C94FF040C9442
:10028000000090E180FF03C09093450602C0909368
:10029000460690E281FF03C09093450602C090930A
:1002A000460690E482FF03C09093450602C09093F7
:1002B000460683FF04C080E880934506089580E8E1
:1002C0008093460608950F931F93CF93DF93082FD3
:1002D000C0E4D6E018E01D8382958F700E94410132
:1002E0001E8300001D83802F0E9441011E8381E236
:1002F0008A95F1F70000DF91CF911F910F9108953A
:1003000094E0909346060C94630194E09093450624
:100310000C946301CF93DF93FC018491EF0121964C
:10032000882321F00E948501FE01F7CFDF91CF9154
:10033000089590E4699F800D112480680C948001D9
:1003400081E00E94800187EE93E00197F1F700C001
:10035000000008951F93CF93DF938CEF80934106A5
:1003600083EC99E00197F1F700C000008CE08093E6
:100370004606C3E018E0D8E01093450683E00E94EB
:1003800041011093460683EC99E00197F1F700C014
:100390000000C15081F7D093450682E00E944101E0
:1003A000D093460683EF91E00197F1F700C000007B
:1003B00088E20E94800188E00E94800181E00E9422
:1003C000800187EE93E00197F1F700C0000086E01E
:1003D0000E9480018CE0DF91CF911F910C948001ED
:1003E0000F931F93CF93DF93EEE6F6E08081866153
:1003F000808300E8009365060093610610E4109383
:1004000066061093620688E08093A5068093A10695
:1004100041E060EA79E080E994E20E945C0441E016
:1004200060EA7BE08BEE9AE20E945C0441E060EAC5
:100430007AE08BEB95E20E945C04A0919024B0914D
:10044000912483E015968C9315974091EB2A509157
:10045000EC2AEA018D83E091BB25F091BC258583D0
:1004600013968C9113978F7C806113968C931397BE
:100470008B818F7C80618B8383818F7C8061838380
:1004800020EA39E08CE0E9018E831F8220EA3AE01D
:10049000E9018E831F8220EA3BE0E9018E831F82FF
:1004A00014968C911497806114968C9314971496DB
:1004B0008C911497886014968C93848180618483D6
:1004C000848188608483FA01848188608483EEE873
:1004D000F6E0808186618083009385060093810623
:1004E0001093860610938206E0EAF0E08281816034
:1004F0008283DF91CF911F910F910895E091E726BC
:10050000F0E0E851F94D80838091E7268091E7265D
:100510008F5F8093E726089580E090E061E170E0CE
:10052000A2E1509197309B01281B390BE091E726FF
:10053000F0E03197E81BF90BE851F94D4081F901E2
:10054000A59FE00DF11D1124E05FFF4D4083019652
:100550008231910531F7809197308F3319F41092E1
:1005600097300895809197308F5F809397300895EA
:1005700080E090E061E170E0A2E15091EA2A9B0105
:10058000281B390BE091E726F0E03197E81BF90BC7
:10059000E851F94D4081F901A59FE00DF11D1124AD
:1005A000EA5EF34D408301968231910531F78091E7
:1005B000EA2A8F3319F41092EA2A08958091EA2AE0
:1005C0008F5F8093EA2A08950F931F93CF93DF9351
:1005D0008C01C0E0D0E0F801EC0FFD1F60818BEED4
:1005E0009AE20E946E042196C231D105A1F7DF91F3
:1005F000CF911F910F9108950F931F93CF93DF9386
:100600008C01C0E0D0E0F801EC0FFD1F60818BEEA3
:100610009AE20E946E042196C231D105A1F7DF91C2
:10062000CF911F910F9108951F920F920FB60F92C5
:1006300011240BB60F922F933F934F935F936F93B9
:100640007F938F939F93AF93BF93CF93EF93FF933A
:100650008BEB95E20E94B0048BEB95E20E949D0427
:10066000C82F0E947E0282ED8C0F823070F4809140
:10067000E626811103C00E948C0212C08091E626FA
:10068000813071F40E94B8020BC0C93521F481E0B9
:100690008093963005C0CF3519F481E08093E6262B
:1006A000FF91EF91CF91BF91AF919F918F917F91EA
:1006B0006F915F914F913F912F910F900BBE0F90D3
:1006C0000FBE0F901F9018951F920F920FB60F92AA
:1006D00011240BB60F922F933F934F935F936F9319
:1006E0007F938F939F93AF93BF93EF93FF9380E993
:1006F00094E20E94D504FF91EF91BF91AF919F9139
:100700008F917F916F915F914F913F912F910F90BA
:100710000BBE0F900FBE0F901F9018951F920F9257
:100720000FB60F9211240BB60F922F933F934F9356
:100730005F936F937F938F939F93AF93BF93EF9349
:10074000FF938BEB95E20E94D504FF91EF91BF914F
:10075000AF919F918F917F916F915F914F913F9159
:100760002F910F900BBE0F900FBE0F901F901895FA
:100770001F920F920FB60F9211240BB60F922F9368
:100780003F934F935F936F937F938F939F93AF9319
:10079000BF93EF93FF938BEE9AE20E94D504FF91F3
:1007A000EF91BF91AF919F918F917F916F915F91E9
:1007B0004F913F912F910F900BBE0F900FBE0F9056
:1007C0001F901895F89480E090E28093E82A909327
:1007D000E92A0E94F0010E94AA010E94A00183E27E
:1007E00092E00E948A011092E726109297301092B0
:1007F000E6261092EA2A1092963080E18093A106B4
:100800008093A606789480E1F82E8091963081300E
:10081000E1F70E94A0018CE092E00E948A0168E565
:100820008BEE9AE20E946E0400E110E2C0E0D0E09C
:100830002091973030E0C217D30738F4C8010E94E6
:10084000E40221960E5E1F4FF3CF69E58BEE9AE22C
:100850000E946E04F092A50668E58BEE9AE20E9473
:100860006E0406E11CE2C0E0D0E02091EA2A30E00C
:10087000C217D30738F4C8010E94FC0221960E5E0D
:100880001F4FF3CF69E58BEE9AE20E946E04F0925F
:10089000A60661E080E00E9499018CEF91E00E9441
:1008A0008A011092E6261092EA2A1092973010924E
:1008B000E72610929630A9CFFC01608371834283B2
:1008C000EB5DFE4F108211823297108211823696B4
:1008D000108211823297108211820895CF93DF9394
:1008E000FC01DC01A95DBE4F8D919C911197EF0138
:1008F000C75DDE4F2881398191E0980F81E0921326
:1009000002C080E017C02D913C9111973327EF0171
:10091000C20FD31F6BA32F5F3F4F33272D933C9301
:10092000A081B18113969C9113979C7F2281922B79
:1009300013969C93DF91CF910895FC01EB5DFE4FE0
:1009400020813181DC01A20FB31F13968C9120818D
:1009500031812F5F3F4F2F713327208331830895DB
:10096000CF93DF93FC01ED5DFE4F208131812F5F3E
:100970002F71DC01AB5DBE4F4D915C91EC01A88104
:10098000B9813C91241769F040815181DC01A40FA9
:10099000B51F13963C93822F90E08083918381E072
:1009A00001C080E0DF91CF910895CF93DF93FC01E8
:1009B000E75DFE4F20813181DC01A95DBE4F4D9185
:1009C0005C913327EC01A881B9814217530739F4B0
:1009D00013968C9113978C7F13968C930DC0208166
:1009E0003181EC01C20FD31F8BA18C938081918147
:1009F0000196992780839183DF91CF910895F89490
:020A0000FFCF26
:100A0200204F7264657273206C6F616465642100AB
:00000001FF
