:100000000C942A000C943C000C943C000C943C0092
:100010000C943C000C943C000C94D4040C948B0382
:100020000C943C000C9437090C943C000C943E005A
:100030000C943C000C943C000C944F040C943C0039
:100040000C943C000C943C000C943C000C943C0040
:100050000C943C0011241FBECFE5D4E0DEBFCDBF21
:1000600022E0A0E6B0E001C01D92A332B207E1F7A2
:100070000E9449010C948B0A0C9400001F920F926D
:100080000FB60F921124CF92DF92EF920F931F932E
:100090002F933F934F935F936F937F938F939F9390
:1000A000AF93BF93CF93DF93EF93FF93EBEDF0E02C
:1000B0008181808382818183838182838481838320
:1000C0008581848386818583878186838CB18783BC
:1000D00087818E3209F09FC08091DC008C3331F033
:1000E0008091DC008E3321F410E003C011E001C0E8
:1000F00012E0EBEDF0E0638170E0762F66278281FD
:10010000EB01C82B80818D3681F030F4823609F402
:1001100074C08C36F1F0A5C0843709F442C085372D
:1001200061F1833709F09DC050C00F2EFBEDCF2E3B
:10013000F0E0DF2EF02DF60186810E944004F601EA
:1001400005812481E82E412FBE0183E00E94B80979
:1001500088C00F2EFBEDCF2EF0E0DF2EF02DF60144
:1001600086810E944004F60105812481E82E412FFA
:10017000BE0182E00E94B80974C00F2EFBEDCF2EA5
:10018000F0E0DF2EF02DF60186810E944004F6019A
:1001900005812481E82E412FBE0181E00E94B8092B
:1001A00060C00F2EFBEDCF2EF0E0DF2EF02DF6011C
:1001B00086810E944004F60105812481E82E412FAA
:1001C000BE0180E00E94B8094CC08091DC008335FC
:1001D00029F4BE0180E00E94400543C00BED10E011
:1001E000F80186810E944004F80125814481082F8E
:1001F000BE0180E00E94730534C00BED10E0F801F1
:1002000086810E944004F80145816481282F8C2F4B
:100210000E94B30326C08091E2008B3369F480E032
:100220000E94D40681E00E94D40682E00E94D40697
:1002300083E00E94D40615C08091E200883539F42D
:1002400083B78E7F83BF8EB58C7F8EBD0AC08091B1
:10025000E200893531F483B7816083BF8EB5836056
:100260008EBDFF91EF91DF91CF91BF91AF919F91A3
:100270008F917F916F915F914F913F912F911F913E
:100280000F91EF90DF90CF900F900FBE0F901F90C7
:10029000189518BA8FEF87BB1BBA8ABB15BA84BBF7
:1002A00012BA82E081BB10BC87E689B980B5866846
:1002B00080BD8AB1886D8AB941E068E370E080E072
:1002C0000E94740640E068E370E082E00E947406D9
:1002D00040E065E370E083E00E94740641E065E37E
:1002E00070E081E00E94740668EC81E00E9485065F
:1002F0000E9497060E948E0620E030E045E062E30F
:1003000070E080E00E9461050E947F040E94630407
:1003100083E70E944004282F43E060E082E70E94C8
:10032000B30382E60E944004E82E01E023E040E0AF
:1003300060E078E081E00E94B8097894FFCF29B3AB
:10034000309122022095232780916100822380959D
:1003500080936100909160009223982790936000B1
:100360002823822F8923982F93279093220220916C
:10037000E8018923822B8093E8010895CF92DF92D0
:10038000EF92FF920F931F93CF93DF931F92CDB7FE
:10039000DEB7198280E80E947404882311F081E09E
:1003A0008983898190E0E9EEF1E0928781878091ED
:1003B000E70180FBCC24C0F8D12CD182C08280918F
:1003C000E70181FBEE24E0F8F12CF482E3828091D6
:1003D000E70182FB002700F910E0178306830F90E6
:1003E000DF91CF911F910F91FF90EF90DF90CF9011
:1003F0000895662349F1823069F470E0FB01EE0F45
:10040000FF1FEE0FFF1F6E0F7F1FFB01EE59FF4F07
:1004100084810895811109C087E0689FF00111244B
:10042000E15CFE4F828193810895813079F470E020
:10043000FB01EE0FFF1FE60FF71FEE0FFF1FE55149
:10044000FF4F81819281089580E0089580E00895B2
:10045000662309F45FC08230E9F480916700861753
:1004600081F022E030E0822FF901EE0FFF1FEE0F46
:10047000FF1FE20FF31FEE59FF4F9081961303C049
:10048000089581E008952F5F3F4F2831310559F7D6
:10049000862F089581111FC080914601861791F023
:1004A00022E030E0822FF901EE0FFF1FEE0FFF1F59
:1004B000EE0FFF1FE21BF30BE15CFE4F90819613E2
:1004C00003C0089581E008952F5F3F4F2831310523
:1004D00049F7862F08958130F9F48091F10086174D
:1004E00081F022E030E0822FF901EE0FFF1FE20FD2
:1004F000F31FEE0FFF1FE551FF4F9081961303C0CE
:10050000089581E008952F5F3F4F2D30310559F751
:10051000862F089580E00895862F08958091DA004F
:10052000882309F456C08091DA0090E0FC01EE0FB8
:10053000FF1FEE0FFF1F8E0F9F1FFC01EE59FF4F95
:1005400023818091DA0090E0FC01EE0FFF1FEE0F97
:10055000FF1F8E0F9F1FFC01EE59FF4F14828091E9
:10056000DA0090E0FC01EE0FFF1FEE0FFF1F8E0F71
:100570009F1FFC01EE59FF4F10828091DA0090E03E
:10058000FC01EE0FFF1FEE0FFF1F8E0F9F1FFC01E0
:10059000EE59FF4F13828091DA0090E0FC01EE0FDC
:1005A000FF1FEE0FFF1F8E0F9F1FFC01EE59FF4F25
:1005B00012828091DA0090E0FC01EE0FFF1FEE0F37
:1005C000FF1F8E0F9F1FFC01EE59FF4F11822093DA
:1005D000DA000895AF92BF92CF92DF92EF92FF922E
:1005E0000F931F93CF93DF9300D000D0CDB7DEB72A
:1005F0008091DA0090E0FC01EE0FFF1FEE0FFF1F6D
:100600008E0F9F1FFC01EE59FF4F828189838981E4
:10061000882391F069818091DA0090E0FC01EE0F6F
:10062000FF1FEE0FFF1F8E0F9F1FFC01EE59FF4FA4
:1006300081810E94F9018983898181115DC0809146
:10064000DA0090E0FC01EE0FFF1FEE0FFF1F8E0F90
:100650009F1FFC01EE59FF4F84818C838C81829512
:100660008F708B838C818F708C8381E08A838B81E8
:1006700080FF0DC02C818091E9019091EA0120FB5F
:10068000AA24A0F8B12CA816B90609F01A828B8109
:1006900081FF0DC02C818091EC019091ED0121FB37
:1006A000CC24C0F8D12CC816D90609F01A828B8147
:1006B00082FF0DC02C818091EF019091F00122FB0F
:1006C000EE24E0F8F12CE816F90609F01A828B8185
:1006D00083FF0DC02C818091F2019091F30123FBE7
:1006E000002700F910E00817190709F01A828A811B
:1006F000813011F40E948E020F900F900F900F9096
:10070000DF91CF911F910F91FF90EF90DF90CF90ED
:10071000BF90AF9008951F920F920FB60F921124C1
:100720002F933F934F935F936F937F938F939F93F9
:10073000AF93BF93EF93FF930E94BE010E949F016E
:100740000E94EA02FF91EF91BF91AF919F918F912B
:100750007F916F915F914F913F912F910F900FBEBD
:100760000F901F901895EF92FF921F93CF93DF93F6
:100770001F92CDB7DEB790916B009923C9F0E2E0EC
:10078000F0E01E2FDF01AA0FBB1FAA0FBB1FAE0F89
:10079000BF1FAE59BF4F14969C91992331F011E0C1
:1007A0001E0F3196E831F10561F7183111F460C080
:1007B00011E0E12FF0E07F01EE0CFF1CEE0CFF1CBE
:1007C000EE0DFF1DDF01AE59BF4F7D0114968C93D6
:1007D00014974C9313961C92139711962C93822F77
:1007E0000E942802F70182838091DA00898389813F
:1007F0008823D9F1898190E0FC01EE0FFF1FEE0FF5
:10080000FF1F8E0F9F1FFC01EE59FF4F838188232E
:10081000E9F0898190E0FC01EE0FFF1FEE0FFF1F52
:100820008E0F9F1FFC01EE59FF4F838189838981C1
:1008300090E0FC01EE0FFF1FEE0FFF1F8E0F9F1FBA
:10084000FC01EE59FF4F83818111E3CF898190E054
:10085000FC01EE0FFF1FEE0FFF1F8E0F9F1FFC010D
:10086000EE59FF4F138380E004C01093DA0001C0FB
:1008700081E00F90DF91CF911F91FF90EF9008954D
:100880008F3629F0833749F0823629F402C081E09F
:10089000089582E0089583E0089580E008951F920E
:1008A0000F920FB60F921124369A0F900FBE0F9031
:1008B0001F9018951092F5018AB38F738ABB8BB382
:1008C000806C8BBB08950E945A048BB3887F8BBBCE
:1008D0008AB3887F8ABB3E9A86B1886886B986B11A
:1008E000876086B9369A0895F8949091E801892333
:1008F0009091E80198279093E8017894089520E07A
:1009000030E0C901880F991FFC01E20FF31FEE0FC1
:10091000FF1FE551FF4F108214821582FC01E20F88
:10092000F31FEE0FFF1FE551FF4F128211822F5F61
:100930003F4F2D30310529F730C08091E6008530DA
:1009400021F5E3EEF0E0238141B381E090E0BC01CA
:1009500002C0660F771F2A95E2F79B01242B21BB6B
:10096000338122B302C0880F991F3A95E2F7809530
:100970009095822382BB848195819BBD8ABD8FB572
:1009800082688FBD8EB58B618EBD87E893E197BD80
:1009900086BD89B7886189BF08958091E4009091F0
:1009A000E500C29791F7C9CF1F920F920FB60F9231
:1009B00011242F938F939F93AF93BF93EF93FF9344
:1009C0008091EA00882309F44FC08091EA008436C0
:1009D00008F445C0A3EEB0E016968C91169790E00F
:1009E000FC01EE0FFF1FE80FF91FEE0FFF1FE5518F
:1009F000FF4F258116968C91169790E0FC01EE0F23
:100A0000FF1FE80FF91FEE0FFF1FE551FF4F158283
:100A100016968C91169790E0FC01EE0FFF1FE80FE1
:100A2000F91FEE0FFF1FE551FF4F148216968C91B0
:100A3000169790E0FC01EE0FFF1FE80FF91FEE0F75
:100A4000FF1FE551FF4F1282118216962C931697C5
:100A500015961C921E92149717961C9205C0E3EEF1
:100A6000F0E087818F5F8783FF91EF91BF91AF9116
:100A70009F918F912F910F900FBE0F901F901895FF
:100A800090E0FC01EE0FFF1FEE0FFF1FEE0FFF1FA8
:100A9000ED51FF4F218132812233310589F4880FD6
:100AA000991F880F991F880F991FFC01ED51FF4F67
:100AB0008381853029F46115710511F07BBD6ABD14
:100AC0000895E82FF0E0EE0FFF1FEE0FFF1FEE0F6F
:100AD000FF1FED51FF4F808335832483438372834F
:100AE000618317820895AF92BF92DF92EF92FF92D7
:100AF0000F931F93CF93DF931F92CDB7DEB7D82EFE
:100B00008091F2009091F300892B99F0A2E0B0E07F
:100B10001A2F7D01FD01EE0FFF1FEA0FFB1FEE0FE5
:100B2000FF1FE551FF4F0180F281E02DEF2B31F5E2
:100B300004C0EE24E394F12C11E05701AA0CBB1C75
:100B4000D501AE0DBF1DAA0FBB1FA551BF4F1296F9
:100B50007C936E9311972C9315961C921597139670
:100B60000C93642F802F0E942802F501EE0DFF1DCB
:100B7000EE0FFF1FE551FF4F848306C011E01A0FEF
:100B80001196AD30B10521F68D2D90E0FC01EE0FF0
:100B9000FF1FEE0FFF1FEE0FFF1FED51FF4F2681CE
:100BA000298329812223B1F1898190E0FC01EE0F94
:100BB000FF1FE80FF91FEE0FFF1FE551FF4F858163
:100BC0008823D9F0898190E0FC01EE0FFF1FE80F28
:100BD000F91FEE0FFF1FE551FF4F85818983898142
:100BE00090E0FC01EE0FFF1FE80FF91FEE0FFF1F53
:100BF000E551FF4F85818111E5CF898190E0FC01AE
:100C0000EE0FFF1FE80FF91FEE0FFF1FE551FF4F1B
:100C100015830AC0880F991F880F991F880F991F85
:100C2000FC01ED51FF4F16830F90DF91CF911F9183
:100C30000F91FF90EF90DF90BF90AF9008951F93BA
:100C4000CF93DF93182FC82FD0E0DE01AA0FBB1F70
:100C5000AA0FBB1FAA0FBB1FAD51BF4F16962C91F9
:100C6000169730E0F901EE0FFF1FE20FF31FEE0FB2
:100C7000FF1FE551FF4F648116962C9130E0F9017A
:100C8000EE0FFF1FE20FF31FEE0FFF1FE551FF4FA7
:100C900083810E94F901811123C0FE01EE0FFF1F25
:100CA000EE0FFF1FEE0FFF1FED51FF4F87818111E8
:100CB00017C0EF01868190E0FC01EE0FFF1FE80FE7
:100CC000F91FEE0FFF1FE551FF4F818192819D8338
:100CD0008C836C817D81812F0E94400581E08F8310
:100CE000DF91CF911F9108959BE0899FF00111241E
:100CF000EA50FE4F8083728361834383108617829C
:100D00008FEF84838CE6828708952BE0829FC00159
:100D10001124FC01EA50FE4F6287089589B7816073
:100D200089BF81E082BF83B7816083BF089580E07F
:100D300090E06FEF2BE0AC01289FF001299FF00DB0
:100D40001124EA50FE4F3481361740F4289FF001F9
:100D5000299FF00D1124EA50FE4F6481249FF00179
:100D6000259FF00D1124EA50FE4F15821682019640
:100D70008430910501F780E090E022E0FC01EE0F65
:100D8000FF1FEE0FFF1FEE0FFF1FE81BF90BE15CCB
:100D9000FE4F1582218310821382128216820196E1
:100DA0008831910559F70895CF93DF931F92CDB7FE
:100DB000DEB7282F30E09BE0899FF0011124EA5034
:100DC000FE4F85818983E98187E0E89FF001112446
:100DD000E15CFE4F13821282E98197E0E99FF00106
:100DE0001124E15CFE4F1582E98187E0E89FF00164
:100DF0001124E15CFE4F82E081838981882309F41C
:100E00006EC08BE0829FF001839FF00D1124EA50A9
:100E1000FE4F8FEF8483E98197E0E99FF001112471
:100E2000E15CFE4F8681882329F1E98187E0E89F14
:100E3000F0011124E15CFE4FE68197E0E99FF001AB
:100E40001124E15CFE4F818181110AC08BE0829FF9
:100E5000F001839FF00D1124EA50FE4F11860AC065
:100E60008BE0829FF001839FF00D1124EA50FE4F2A
:100E700083E081878BE0829FF001839FF00D112436
:100E8000EA50FE4F108617821682A98187E0A89F3C
:100E9000D0011124A15CBE4F16968C91858383816D
:100EA00081110FC08BE0829FF001839FF00D112410
:100EB000EA50FE4F0180F281E02D80818F708083A7
:100EC0000EC08BE0829FF001839FF00D1124EA5049
:100ED000FE4F0180F281E02D8081807F80830F9022
:100EE000DF91CF910895CF92DF92EF92FF920F930F
:100EF0001F93CF93DF93C82FD0E00BE0809FF001CA
:100F00001124EA50FE4F9381992329F093E062E087
:100F1000A1E070E004C097E066E0A5E074E02BE09B
:100F20002C9FF0012D9FF00D1124EA50FE4F2185DA
:100F3000213091F138F0223009F458C0233009F4FF
:100F40007FC0A7C02BE02C9FF0012D9FF00D112436
:100F50009F012A503E4F6901F901E180F280F701BB
:100F6000508121E030E08901062E02C0000F111FE0
:100F70000A94E2F7402F409545234083F601018112
:100F80001281F8014081072E02C0220F331F0A94FC
:100F9000E2F7242B20837DC02BE02C9FF0012D9FB6
:100FA000F00D11248F010A501E4F6801F801E180F5
:100FB000F280F701508121E030E08901092E02C062
:100FC000000F111F0A94E2F7402F409545234083FC
:100FD000F60101811281F80140810A2E02C0220F20
:100FE000331F0A94E2F7242B208353C02BE02C9F5D
:100FF000F0012D9FF00D11248F010A501E4F680142
:10100000F801E180F280F701508121E030E08901B0
:10101000072E02C0000F111F0A94E2F7402F4095DF
:1010200045234083F60101811281F8014081062E9B
:1010300002C0220F331F0A94E2F7242B208329C019
:101040002BE02C9FF0012D9FF00D11248F010A50F1
:101050001E4F6801F801E180F280F701508121E024
:1010600030E089010A2E02C0000F111F0A94E2F736
:10107000402F409545234083F60101811281F801FC
:101080004081092E02C0220F331F0A94E2F7242B5D
:1010900020832BE02C9FF0012D9FF00D1124EA50AE
:1010A000FE4FE58107E0E09FF0011124E15CFE4F77
:1010B0002181211121C02BE02C9FF0012D9FF00DEB
:1010C0001124EA50FE4F2185233051F42BE02C9F50
:1010D000F0012D9FF00D1124EA50FE4F11863FC004
:1010E0002BE02C9FF0012D9FF00D1124EA50FE4FB4
:1010F00021852F5F218733C02BE02C9FF0012D9F8E
:10110000F00D1124EA50FE4FE58117E0E19FF00158
:101110001124E15CFE4F2181213009F52BE02C9F49
:10112000F0012D9FF00D1124EA50FE4F2185211171
:101130000BC02BE02C9FF0012D9FF00D1124EA50E5
:10114000FE4F23E021870BC02BE02C9FF0012D9F49
:10115000F00D1124EA50FE4F2185215021872BE00C
:101160002C9FF0012D9FF00D1124EA50FE4F478176
:101170005085E58127E0E29FF0011124E15CFE4FFC
:10118000228133812C5F3F4F4217530779F52BE0C3
:101190002C9FF0012D9FF00D1124EA50FE4F01808D
:1011A000F281E02D408121E030E0890102C0000F92
:1011B000111FAA95E2F7D90102C0AA0FBB1F7A95A9
:1011C000E2F7A02B890102C0000F111F6A95E2F718
:1011D000B8016A2B02C0220F331F9A95E2F7262B23
:1011E0002095242320830E94D40621C08BE08C9F6D
:1011F000F0018D9FF00D1124EA50FE4FE58117E0BC
:10120000E19FF0011124E15CFE4F828193818C3FCC
:101210009F4F68F48BE08C9FF0018D9FF00D11249F
:10122000EA50FE4F878190850196908787838BE0F7
:101230008C9FF0018D9FF00D1124EA50FE4F948198
:101240008285891758F48BE08C9FF0018D9FF00DFB
:101250001124EA50FE4F848181508483DF91CF9125
:101260001F910F91FF90EF90DF90CF9008951F9204
:101270000F920FB60F921124EF92FF920F931F93CC
:101280002F933F934F935F936F937F938F939F938E
:10129000AF93BF93CF93DF93EF93FF93C0E0D0E082
:1012A0001BE07E011C9FF0011D9FF00D1124EA50F0
:1012B000FE4F2681948129132CC01C9FF0011D9F95
:1012C000F00D1124EA50FE4F85818823C9F0DF011B
:1012D000E58187E0E89FF0011124E15CFE4F658124
:1012E0001596EC9187E0E89FF0011124E15CFE4F38
:1012F00084810E94F901811103C08C2F0E94730721
:101300001E9DF0011F9DF00D1124EA50FE4F168224
:101310000AC01C9FF0011D9FF00D1124EA50FE4FE2
:1013200086818F5F86832196C430D10509F0B9CFBD
:1013300004C080E00E941F0604C08091E900811172
:10134000F8CFFF91EF91DF91CF91BF91AF919F9136
:101350008F917F916F915F914F913F912F911F914D
:101360000F91FF90EF900F900FBE0F901F90189568
:10137000CF92DF92EF920F931F93CF93DF9300D022
:10138000CDB7DEB7182F81E089838981883108F0D5
:101390005CC0E98187E0E89FF0011124E15CFE4F29
:1013A00082819381892B09F049C00CC0E98197E0C3
:1013B000E99FF0011124E15CFE4F0280F381E02DF2
:1013C000EF2BE1F5E98187E0E89FF0011124E15C72
:1013D000FE4F0083E98197E0E99FF0011124E15C71
:1013E000FE4F1682E98187E0E89FF0011124E15C5D
:1013F000FE4F4183E98197E0E99FF0011124E15C10
:10140000FE4F73836283E98187E0E89FF001112436
:10141000E15CFE4FE482C980D12C622F8E2D0E94A8
:101420002802F601EE0FFF1FEE0FFF1FEE0FFF1F4A
:10143000EC19FD09E15CFE4F858307C099819F5F30
:1014400099839981983108F4B1CF812F90E02BE0F6
:10145000129FF0011124EA50FE4F25812A832A8130
:10146000222339F1EA8187E0E89FF0011124E15C51
:10147000FE4F8681882399F0EA8197E0E99FF00189
:101480001124E15CFE4F86818A83EA8127E0E29F96
:10149000F0011124E15CFE4F86818111EDCFEA81DC
:1014A000898197E0E99FF0011124E15CFE4F86837A
:1014B00028C0E98127E0E29FF0011124E15CFE4FA2
:1014C000218121110AC02BE0289FF001299FF00DF6
:1014D0001124EA50FE4F11860AC02BE0289FF0012C
:1014E000299FF00D1124EA50FE4F23E02187298126
:1014F0003BE0389FF001399FF00D1124EA50FE4F78
:1015000025830F900F90DF91CF911F910F91EF9056
:0A151000DF90CF900895F894FFCF0C
:00000001FF
